:0400000002004B327D
:03000B000200D11F
:0100130032BA
:01001B0032B2
:0100230032AA
:01002B0032A2
:01003300329A
:03003B000201C8F7
:0300430002032491
:0B00A40090012DE4F07508007509388C
:0300B50002004600
:030046000209EDBF
:1000B80075E10075E206C2AF900064120B01850875
:1000C8008285098312004980FEC0E0C082C083C0D7
:1000D800D0758CF8758A30900100E02401F0A3E017
:1000E8003400F0A3E03400F0A3E03400F0D0D0D026
:1000F80083D082D0E032E582900129F0E0FF24FB32
:100108004017E5C354F8FEEF24B4F582E43401F552
:1001180083E04EF5C37582012275820022E5829044
:10012800012AF0E0F4FF5293EF529243C3107F008C
:1001380090012BE4F0A3F08F82C0071200FED007D5
:100148007E058E051EED602B7C007D00E5C320E753
:100158000C0CBC00010DEC4D70F2F5822290012BC5
:10016800E0FCA3E0FD90012BE5C42CF0E5C53DA320
:10017800F080CFEF75F002A42420FD740135F0FE65
:1001880090012BE0FBA3E0FC9001457405F0E4A38B
:10019800F08B828C83C007C006C005120CA0AB820E
:1001A800AC83D005D006D0078D828E83EBF0ECA30C
:1001B800F00FBF04005003020138D2E97582012212
:1001C800C020C0E0C0F0C082C083C007C006C00520
:1001D800C004C003C002C001C000C0D075D00090E8
:1001E800012EE5C4F0E5C5A3F090012DE0FF75F000
:1001F80002A42420F582740135F0F583E0FDA3E024
:10020800FEED249CFDEE34FFFE90012EE0FBA3E002
:10021800FCC3EB9DEC9E5021EF24B4F582E434013D
:10022800F583E014F5F005F07401800225E0D5F0BF
:10023800FBFE900128E0FD4EF090012DEF04F0E068
:10024800FFBF0400400590012DE4F090012DE0F57A
:10025800821200FED0D0D000D001D002D003D0044A
:10026800D005D006D007D083D082D0F0D0E0D020FF
:100278003275A15575A1AA43B1102243D10490004B
:1002880002120B0153D1FB22C2EA75E20075E40A9F
:1002980075E50074FE55EB4404F5EB75D41275EC66
:1002A8000075ED0053EAF375DC0275EE5075EF004A
:1002B80074EF55EA4440F5EA75D21275E30075D13A
:1002C8008075E22943D10175D8FF75E107D2EA228A
:1002D80090016274BCF07401A3F0E4A3F09001658E
:1002E8007408F0E4A3F090005075F000120F6175E7
:1002F800D30853D2FC2290016274B8F07401A3F0C1
:10030800E4A3F09001657404F0E4A3F090000A758A
:10031800F000120F6175D50453D4FC22C020C0E050
:10032800C0F0C082C083C007C006C005C004C003B7
:10033800C002C001C000C0D075D00020D903020798
:100348009F743F55D9FFFEBE0003020771BF20030B
:100358000206DABF2102801BBF22028008BF3002DA
:10036800802502079D75D50074FC55D44402F5D448
:1003780002079D75D30074FC55D24402F5D2900152
:10038800107401F002079D900130E5DBF0E0FFBF3B
:10039800080280030206AC900006E0FF90010DF011
:1003A800900007E07005EF2480500690010D747FDF
:1003B800F0900130E4F0900001E0FF90010CF09023
:1003C8000000E0FE5460602DBF01030206B2BF02C8
:1003D800030206B2BF03030206B2BF09030206B254
:1003E800BF0A030206B2BF0B030206B290013074C3
:1003F800FFF00206B2EFFE24F550030206A4EE2435
:100408000A83F582EE240F83F583E4738267A4BD23
:10041800A4312AA43D5BB2060506050605040605B7
:100428000506900003E0FFBF0102800ABF020280B8
:100438001BBF2276802C9001127410F07410A3F068
:100448007480A3F09001307412F0806490011274EB
:1004580022F07410A3F07480A3F0900130743BF084
:10046800804E900004E07016900112745DF07410D4
:10047800A3F07480A3F0900130743EF080329000B5
:1004880004E0FFBF011C900112749BF07410A3F0EC
:100498007480A3F09001307434F090010E7401F070
:1004A800800E90013074FFF0800690013074FFF0E8
:1004B80090010DE0FF900130E0FEC39F50059001D0
:1004C8000DEEF090010DE0FFBF080040067D087EAC
:1004D8000080048F057E00900130EDF0900112E05D
:1004E800FCA3E0FEA3E0FF900162ECF0EEA3F0EFC6
:1004F800A3F0900165EDF0E4A3F090000075F00022
:10050800C005120F61D00590010DE0C39DF0900168
:1005180012E0FCA3E0FEA3E0FF900112ED2CF0E452
:100528003EA3F0EFA3F00206B2900002E0FF9001B4
:100538000DF00206B2900111E0900000F090010D5C
:10054800E0FFBF010050030206B29001307401F0D1
:100558000206B2900002E0FF900111F00206B2908C
:100568000000E0FF53071F7E00BF0234BE00319039
:100578000004E0FFBF0102801CBF8102800DBF8222
:100588001974BC55D44402F5D4801574BC55D244B2
:1005980002F5D2800B53D273800690013074FFF0BD
:1005A800900000E0FF541F70030206B290013074FF
:1005B800FFF00206B2900000E0541F70379000036D
:1005C800E0FE7F00900002E0FD7C004207EC42065E
:1005D800BF0118BE0015901029E493FF30E503020F
:1005E80006B290013074FFF00206B290013074FF39
:1005F800F00206B2900000E0FF53071F7E00BF0222
:1006080071BE006E900003E0FE7F00900002E0FDE6
:100618007C004207EC4206EF4E704F900005E0FE6A
:100628007F00900004E0FD7C004207EC4206BF0218
:1006380005BE00028018BF8105BE0002801ABF8275
:1006480021BE001E74BF55D44403F5D4805C747F6A
:1006580055D4440CF5D4805274BF55D24403F5D216
:10066800804890013074FFF0804090013074FFF0B2
:10067800803890013074FFF08030900000E4F090F2
:100688000001F090010DE0FFBF020040089001302A
:100698007402F08015900130EFF0800E90013074F4
:1006A800FFF0800690013074FFF0900130E0FFBF4A
:1006B800FF0C90010C74FFF075DCCF02079DEF6012
:1006C800088FDD75DCC002079D75DD0075DCC00292
:1006D800079D90010CE0FFBF05028073BF060280F2
:1006E8000302076990010DE0FFBF080040067D087E
:1006F8007E0080048F057E00900112E0FCA3E0FEDE
:10070800A3E0FF900162ECF0EEA3F0EFA3F09001FC
:1007180065EDF0E4A3F090000075F000C005120F3D
:1007280061D00590010DE0C39DF0900112E0FCA39B
:10073800E0FEA3E0FF900112ED2CF0E43EA3F0EF01
:10074800A3F08DDDAEDC7F006306408EDC8046E5DD
:10075800E35480FF90010DE0FE4FF5E375DC028065
:100768003475DD0075DC02802CE5DB90010CE0FFC0
:10077800BF0919900000E0600890011F7401F08023
:100788000B900000E0700590011FE4F0AEDC7F00E4
:100798006306808EDCC2D930D81275DC0275D2109F
:1007A80075D41275E300C2DAC2D9C2D810DA028051
:1007B80004E5DA800375D8FFD0D0D000D001D0028C
:1007C800D003D004D005D006D007D083D082D0F093
:1007D800D0E0D02032AFF0AE83E582900131F0EE68
:1007E800A3F0EFA3F0900131E0FDA3E0FEA3E0FF4A
:1007F8008D828E838FF0120FF0FF900134F09001FC
:1008080035E4F0BF61004012EF2485400D900134BB
:1008180074E02FF09001357401F0900135E0700616
:100828009001BC7402F0900134E0FFBF4100401019
:10083800EF24A5400B74C32FFF9001BEF002094BB3
:10084800900134E0FFBF31004015EF24C6401090FE
:1008580001BCE4F074ED2FFF9001BEF002094B904B
:100868000134E0FFBF0D028065BF20028057BF2121
:1008780003020940BF2B02806BBF2E0302092BBF66
:100888002F03020915BF3003020923BF3A0280462D
:10089800BF3F02805CBF5C028022BF5F028060BFF6
:1008A80060028009BF7E0302093302094B9001BC34
:1008B8007408F09001BE7415F002094B9001BE74E3
:1008C80031F002094B9001BE742CF002094B9001E3
:1008D800BE7428F0806D9001BC7402F09001BE7463
:1008E80033F0805F9001BCE4F09001BE7457F08053
:1008F800529001BC7402F09001BE7438F0804490AC
:1009080001BC7402F09001BE742DF080369001BCD9
:100918007405F09001BE7416F080289001BE74270B
:10092800F080209001BE7437F080189001BC7404E8
:10093800F09001BE04F0800B9001BC7404F09001AB
:10094800BE23F090000A120B01900110E060FA1229
:1009580002D8900110E060FA90000A120B01900191
:10096800BCE4F09001BEF0900110E060FA1202D8E9
:10097800900110E060FA2290016BE0FFBF0138900F
:1009880001B2E0FEA3E0FF7D008E828F838DF0121E
:1009980007DD9001B2E02401F0A3E03400F09001FB
:1009A800B2E0FEA3E0FF8E828F83E0703790016B88
:1009B800E4F090011EF02274FC55D24402F5D27482
:1009C800FC55D44402F5D490011EE0FFBF011590F8
:1009D800011EE4F09001B2746CF07401A3F0900170
:1009E8006B7401F022120AB2900005120B01120B6F
:1009F800421202907582301201257582001200FEA3
:100A080043960143970143960243970275891175EE
:100A18008CF8758A30D28CD2A9D2AF75D30075D52F
:100A280000900110E4F090010EF090011EF090018A
:100A380004E0FCA3E0FDA3E0FEA3E0FF900100E0DA
:100A4800F8A3E0F9A3E0FAA3E0FBE8C39CFCE99D66
:100A5800FDEA9EFEEB9FFFC374289CE49DE49EE4A0
:100A68009F50CBB2B0900104E8F0E9A3F0EAA3F0FC
:100A7800EBA3F090011FE0FF24FF92B1900128E062
:100A8800601C900128E030E2031200B8900128E0D1
:100A980030E30690011E7401F0900128E4F0900103
:0A0AA8000EE0608A12097F020A3690
:1010100012011001000000083D41072100000000FE
:10102000000109023B00020100A032090400000196
:1010300003010100092111010001223E0007058181
:101040000308000A0904010001030102000921103C
:101050000100012234000705820304000A0501098A
:1010600006A101050719E029E7150025017501957D
:10107000088102950175088101950375010508191C
:1010800001290391029505750191019506750826C0
:10109000FF000507190029918100C005010902A17F
:1010A000010901A100050919012903150025017590
:1010B000019503810275059501810105010930093A
:1010C0003109381581257F750895038106C0C00058
:1010D00044696573206973742064657220434835E0
:1010E000353220426569737069656C205465787487
:1010F0002E2044727565636B65204E756D20756D8D
:1011000020646965204C45442079752073636861CB
:101110006C74656E2E006C0103040000000000007A
:081120000000000000000000C7
:0600AF00750A00750B3814
:100AB20075A15575A1AA74F855B94406F5B975A181
:100AC2000022AF83E582900136F0EFA3F090013669
:100AD200E0FEA3E0FFEE4F601D05A105A105A10503
:100AE200A105A105A105A11EBEFF011F900136EEC1
:100AF200F0EFA3F080DF900136EEF0EFA3F022AF2B
:100B020083E582900138F0EFA3F0900138E0FEA374
:100B1200E0FFEE4F601D9003E8C007C006120AC452
:100B2200D006D0071EBEFF011F900138EEF0EFA3E2
:100B3200F080DF900138EEF0EFA3F02243C61022DE
:100B4200C29FD29EC29DC2CDC2CC43878090013A41
:100B5200741AF07406A3F0E4A3F0A3F090013AE053
:100B6200FCA3E0FDA3E0FEA3E0FF90014C740AF0B9
:100B7200E4A3F0A3F0A3F08C828D838EF0EF120D2C
:100B82002DAC8290013EECF090013AE0FCA3E0FD36
:100B9200A3E0FEA3E0FF900155740AF0E4A3F0A3E2
:100BA200F0A3F08C828D838EF0EF120E6DAC82ADCD
:100BB20083AEF0FF90013AECF0EDA3F0EEA3F0EF7C
:100BC200A3F090013EE0FFBF0500402190013AE012
:100BD200FCA3E0FDA3E0FEA3E0FF90013A74012C28
:100BE200F0E43DA3F0E43EA3F0E43FA3F0740F551C
:100BF200894420F58943C9A090013AE0FCA3E0A30F
:100C0200E0A3E0C3E49CF58DD28ED299D29C22104F
:100C1200980280FB85998222E58290013FF0E0F5FF
:100C22009910990280FB22AF83E582900140F0EF98
:100C3200A3F010990280FB900140E0FEA3E0FF8E3A
:100C4200998E828F832210980280FBAE997F008E4C
:100C5200828F8322C2C7D2C5D2C475C2642210C099
:100C62000280FB85C18222E582900142F0E0F5C15B
:100C720030C1FDD2C122E582900143F075A15575C4
:100C8200A1AAE0600543B101800353B1FE75A10042
:100C920075FF0022E582900144F0E0F5FF22AF8368
:100CA200E582900147F0EFA3F0900149E4F0A3F050
:100CB200900145E0FEA3E0FF7D10900147E0FBA319
:100CC200E0FC90014B235401F0EB2BFBEC33FC9046
:100CD2000147EBF0ECA3F0900149E0FBA3E0FCEB51
:100CE2002BFBEC33FC900149EBF0ECA3F090014BB1
:100CF200E06008900149E043E001F0900149E0FB27
:100D0200A3E0FCC3EB9EEC9F4013900149EBC39E12
:100D1200F0EC9FA3F0900147E043E001F0DD9B90EF
:100D22000147E0FEA3E08E82F58322AF82AE83AD5F
:100D3200F0FC900150EFF0EEA3F0EDA3F0ECA3F085
:100D4200900154E4F0900150E0FCA3E0FDA3E0FE2A
:100D5200A3E0FF7B0090014CE0F50CA3E0F50DA3AE
:100D6200E0F50EA3E0F50F235401FA7074C003E519
:100D72000C250CF8E50D33F9E50E33FAE50F33FBDC
:100D820090014CE8F0E9A3F0EAA3F0EBA3F09001A4
:100D92004CE0F50CA3E0F50DA3E0F50EA3E0F50F92
:100DA200C3EC950CED950DEE950EEF950FD003501B
:100DB20027E50FC313F50FE50E13F50EE50D13F539
:100DC2000DE50C13F50C90014CF0E50DA3F0E50ECA
:100DD200A3F0E50FA3F080090B900154EBF0020D94
:100DE20057900154E0FF900150E0FBA3E0FCA3E028
:100DF200FDA3E0FE90014CE0F50CA3E0F50DA3E0AD
:100E0200F50EA3E0F50FC3EB950CEC950DED950EE9
:100E1200EE950F4017900150EBC3950CF0EC950D39
:100E2200A3F0ED950EA3F0EE950FA3F090014CE028
:100E3200FBA3E0FCA3E0FDA3E0C313FEED13FDEC76
:100E420013FCEB1390014CF0ECA3F0EDA3F0EEA336
:100E5200F08F061FEE708F900150E0FCA3E0FDA31F
:100E6200E0FEA3E08C828D838EF022AF82AE83AD52
:100E7200F0FC900159EFF0EEA3F0EDA3F0ECA3F03B
:100E820090015DE4F0A3F0A3F0A3F0900155E0FC23
:100E9200A3E0FDA3E0FEA3E0FF7B20C00390015985
:100EA200E0F8A3E0F9A3E0FAA3E0FB900161235488
:100EB20001F0E828F8E933F9EA33FAEB33FB900161
:100EC20059E8F0E9A3F0EAA3F0EBA3F090015DE0AA
:100ED200F8A3E0F9A3E0FAA3E0FBE828F8E933F984
:100EE200EA33FAEB33FB90015DE8F0E9A3F0EAA301
:100EF200F0EBA3F0D003900161E0600890015DE0A7
:100F020043E001F090015DE0F50CA3E0F50DA3E0F4
:100F1200F50EA3E0F50FC3E50C9CE50D9DE50E9ED5
:100F2200E50F9F401F90015DE50CC39CF0E50D9D10
:100F3200A3F0E50E9EA3F0E50F9FA3F0900159E008
:100F420043E001F01BEB6003020E9D900159E0FCAF
:0F0F5200A3E0FDA3E0FEA3E08C828D838EF0224E
:06007A00E478FFF6D8FD5A
:100F6100AFF0AE83E582900167F0EEA3F0EFA3F05E
:100F7100900167E0F50CA3E0F50DA3E0F50EAA0CD6
:100F8100AB0DAC0E900162E0F8A3E0F9A3E0FF9095
:100F91000165E0F50FA3E0F510AD0FAE10150F746C
:100FA100FFB50F021510ED4E6020888289838FF006
:100FB100120FF0FEA3A882A9838A828B838CF0EEA4
:100FC100120FD5A3AA82AB8380CF850C82850D83B6
:040FD100850EF02277
:100058007959E94400601B7A019010CF786B75A03C
:1000680001E493F2A308B8000205A0D9F4DAF27506
:02007800A0FFE7
:100FD50020F71130F6138883A88220F509F6A88337
:0B0FE5007583002280FEF280F5F022F0
:100080007800E84400600A790075A001E4F309D81B
:10009000FC786BE84400600C7901900100E4F0A367
:0400A000D8FCD9FAB5
:0F004900E47375812012100CE5826003020046FB
:100FF00020F71430F6148883A88220F507E6A8832A
:1010000075830022E280F7E49322E02275820022B9
:00000001FF
